{
  "contractName": "Blacklist",
  "abi": [
    {
      "inputs": [],
      "stateMutability": "nonpayable",
      "type": "constructor"
    },
    {
      "anonymous": false,
      "inputs": [
        {
          "indexed": true,
          "internalType": "address",
          "name": "previousOwner",
          "type": "address"
        },
        {
          "indexed": true,
          "internalType": "address",
          "name": "newOwner",
          "type": "address"
        }
      ],
      "name": "OwnershipTransferred",
      "type": "event"
    },
    {
      "inputs": [
        {
          "internalType": "address",
          "name": "",
          "type": "address"
        }
      ],
      "name": "members",
      "outputs": [
        {
          "internalType": "bool",
          "name": "",
          "type": "bool"
        }
      ],
      "stateMutability": "view",
      "type": "function",
      "constant": true
    },
    {
      "inputs": [],
      "name": "membersLenght",
      "outputs": [
        {
          "internalType": "uint256",
          "name": "",
          "type": "uint256"
        }
      ],
      "stateMutability": "view",
      "type": "function",
      "constant": true
    },
    {
      "inputs": [],
      "name": "owner",
      "outputs": [
        {
          "internalType": "address",
          "name": "",
          "type": "address"
        }
      ],
      "stateMutability": "view",
      "type": "function",
      "constant": true
    },
    {
      "inputs": [],
      "name": "renounceOwnership",
      "outputs": [],
      "stateMutability": "nonpayable",
      "type": "function"
    },
    {
      "inputs": [
        {
          "internalType": "address",
          "name": "newOwner",
          "type": "address"
        }
      ],
      "name": "transferOwnership",
      "outputs": [],
      "stateMutability": "nonpayable",
      "type": "function"
    },
    {
      "inputs": [
        {
          "internalType": "address",
          "name": "member",
          "type": "address"
        }
      ],
      "name": "has",
      "outputs": [
        {
          "internalType": "bool",
          "name": "",
          "type": "bool"
        }
      ],
      "stateMutability": "view",
      "type": "function",
      "constant": true
    },
    {
      "inputs": [
        {
          "internalType": "address",
          "name": "member",
          "type": "address"
        }
      ],
      "name": "add",
      "outputs": [],
      "stateMutability": "nonpayable",
      "type": "function"
    },
    {
      "inputs": [
        {
          "internalType": "address",
          "name": "member",
          "type": "address"
        }
      ],
      "name": "remove",
      "outputs": [],
      "stateMutability": "nonpayable",
      "type": "function"
    },
    {
      "inputs": [],
      "name": "lenght",
      "outputs": [
        {
          "internalType": "uint256",
          "name": "",
          "type": "uint256"
        }
      ],
      "stateMutability": "view",
      "type": "function",
      "constant": true
    }
  ],
  "bytecode": "0x6080604052600060025534801561001557600080fd5b5061003261002761003760201b60201c565b61003f60201b60201c565b610103565b600033905090565b60008060009054906101000a900473ffffffffffffffffffffffffffffffffffffffff169050816000806101000a81548173ffffffffffffffffffffffffffffffffffffffff021916908373ffffffffffffffffffffffffffffffffffffffff1602179055508173ffffffffffffffffffffffffffffffffffffffff168173ffffffffffffffffffffffffffffffffffffffff167f8be0079c531659141344cd1fd0a4f28419497f9722a3daafe3b4186f6b6457e060405160405180910390a35050565b610ac8806101126000396000f3fe608060405234801561001057600080fd5b50600436106100935760003560e01c806345cb5ce61161006657806345cb5ce614610130578063715018a61461014e5780638da5cb5b14610158578063ad0262d014610176578063f2fde38b1461019457610093565b806308ae4b0c146100985780630a3b0a4f146100c857806321887c3d146100e457806329092d0e14610114575b600080fd5b6100b260048036038101906100ad91906106c1565b6101b0565b6040516100bf9190610709565b60405180910390f35b6100e260048036038101906100dd91906106c1565b6101d0565b005b6100fe60048036038101906100f991906106c1565b610329565b60405161010b9190610709565b60405180910390f35b61012e600480360381019061012991906106c1565b61037f565b005b610138610444565b604051610145919061073d565b60405180910390f35b61015661044e565b005b610160610462565b60405161016d9190610767565b60405180910390f35b61017e61048b565b60405161018b919061073d565b60405180910390f35b6101ae60048036038101906101a991906106c1565b610491565b005b60016020528060005260406000206000915054906101000a900460ff1681565b6101d8610514565b600073ffffffffffffffffffffffffffffffffffffffff168173ffffffffffffffffffffffffffffffffffffffff1603610247576040517f08c379a000000000000000000000000000000000000000000000000000000000815260040161023e906107df565b60405180910390fd5b3373ffffffffffffffffffffffffffffffffffffffff168173ffffffffffffffffffffffffffffffffffffffff16036102b5576040517f08c379a00000000000000000000000000000000000000000000000000000000081526004016102ac90610871565b60405180910390fd5b60018060008373ffffffffffffffffffffffffffffffffffffffff1673ffffffffffffffffffffffffffffffffffffffff16815260200190815260200160002060006101000a81548160ff02191690831515021790555060016002600082825461031f91906108c0565b9250508190555050565b6000600160008373ffffffffffffffffffffffffffffffffffffffff1673ffffffffffffffffffffffffffffffffffffffff16815260200190815260200160002060009054906101000a900460ff169050919050565b610387610514565b61039081610329565b6103cf576040517f08c379a00000000000000000000000000000000000000000000000000000000081526004016103c690610940565b60405180910390fd5b6000600160008373ffffffffffffffffffffffffffffffffffffffff1673ffffffffffffffffffffffffffffffffffffffff16815260200190815260200160002060006101000a81548160ff02191690831515021790555060016002600082825461043a9190610960565b9250508190555050565b6000600254905090565b610456610514565b6104606000610592565b565b60008060009054906101000a900473ffffffffffffffffffffffffffffffffffffffff16905090565b60025481565b610499610514565b600073ffffffffffffffffffffffffffffffffffffffff168173ffffffffffffffffffffffffffffffffffffffff1603610508576040517f08c379a00000000000000000000000000000000000000000000000000000000081526004016104ff90610a06565b60405180910390fd5b61051181610592565b50565b61051c610656565b73ffffffffffffffffffffffffffffffffffffffff1661053a610462565b73ffffffffffffffffffffffffffffffffffffffff1614610590576040517f08c379a000000000000000000000000000000000000000000000000000000000815260040161058790610a72565b60405180910390fd5b565b60008060009054906101000a900473ffffffffffffffffffffffffffffffffffffffff169050816000806101000a81548173ffffffffffffffffffffffffffffffffffffffff021916908373ffffffffffffffffffffffffffffffffffffffff1602179055508173ffffffffffffffffffffffffffffffffffffffff168173ffffffffffffffffffffffffffffffffffffffff167f8be0079c531659141344cd1fd0a4f28419497f9722a3daafe3b4186f6b6457e060405160405180910390a35050565b600033905090565b600080fd5b600073ffffffffffffffffffffffffffffffffffffffff82169050919050565b600061068e82610663565b9050919050565b61069e81610683565b81146106a957600080fd5b50565b6000813590506106bb81610695565b92915050565b6000602082840312156106d7576106d661065e565b5b60006106e5848285016106ac565b91505092915050565b60008115159050919050565b610703816106ee565b82525050565b600060208201905061071e60008301846106fa565b92915050565b6000819050919050565b61073781610724565b82525050565b6000602082019050610752600083018461072e565b92915050565b61076181610683565b82525050565b600060208201905061077c6000830184610758565b92915050565b600082825260208201905092915050565b7f41646472657373206e6f7420616c6c6f77656400000000000000000000000000600082015250565b60006107c9601383610782565b91506107d482610793565b602082019050919050565b600060208201905081810360008301526107f8816107bc565b9050919050565b7f4f776e65722063616e6e6f7420626520616464656420746f20626c61636b6c6960008201527f7374000000000000000000000000000000000000000000000000000000000000602082015250565b600061085b602283610782565b9150610866826107ff565b604082019050919050565b6000602082019050818103600083015261088a8161084e565b9050919050565b7f4e487b7100000000000000000000000000000000000000000000000000000000600052601160045260246000fd5b60006108cb82610724565b91506108d683610724565b92508282019050808211156108ee576108ed610891565b5b92915050565b7f41646472657373206e6f74206578697374656400000000000000000000000000600082015250565b600061092a601383610782565b9150610935826108f4565b602082019050919050565b600060208201905081810360008301526109598161091d565b9050919050565b600061096b82610724565b915061097683610724565b925082820390508181111561098e5761098d610891565b5b92915050565b7f4f776e61626c653a206e6577206f776e657220697320746865207a65726f206160008201527f6464726573730000000000000000000000000000000000000000000000000000602082015250565b60006109f0602683610782565b91506109fb82610994565b604082019050919050565b60006020820190508181036000830152610a1f816109e3565b9050919050565b7f4f776e61626c653a2063616c6c6572206973206e6f7420746865206f776e6572600082015250565b6000610a5c602083610782565b9150610a6782610a26565b602082019050919050565b60006020820190508181036000830152610a8b81610a4f565b905091905056fea2646970667358221220ff0a5bacfde7287fdd31e430ec6e185907db443ae9e07be2831208df1696bb1b64736f6c63430008110033",
  "immutableReferences": {},
  "source": "// SPDX-License-Identifier: MIT\npragma solidity >=0.4.22 <0.9.0;\n\nimport \"../node_modules/@openzeppelin/contracts/access/Ownable.sol\";\n\nimport \"./interfaces/IBlacklist.sol\";\n\ncontract Blacklist is Ownable, IBlacklist {\n\n  mapping (address=>bool) public members;\n  uint256 public membersLenght = 0;\n\n  constructor() { }\n\n  function has(address member) public view override returns (bool) {\n    return members[member];\n  }\n\n  function add(address member) public onlyOwner {\n    require(member != address(0), \"Address not allowed\");\n    require(member != msg.sender, \"Owner cannot be added to blacklist\");\n    members[member] = true;\n    membersLenght += 1;\n  }\n\n  function remove(address member) public onlyOwner {\n    require(has(member), \"Address not existed\");\n    members[member] = false;\n    membersLenght -= 1;\n  }\n\n  function lenght() public view returns (uint256) {\n    return membersLenght;\n  }\n}\n",
  "sourcePath": "/Users/antonioalfonso/work/masterzdev/homework1/contracts/Blacklist.sol",
  "compiler": {
    "name": "solc",
    "version": "0.8.17+commit.8df45f5f.Emscripten.clang"
  },
  "schemaVersion": "3.4.11",
  "updatedAt": "2023-03-27T11:17:38.930Z",
  "networkType": "ethereum",
  "devdoc": {
    "kind": "dev",
    "methods": {
      "owner()": {
        "details": "Returns the address of the current owner."
      },
      "renounceOwnership()": {
        "details": "Leaves the contract without owner. It will not be possible to call `onlyOwner` functions anymore. Can only be called by the current owner. NOTE: Renouncing ownership will leave the contract without an owner, thereby removing any functionality that is only available to the owner."
      },
      "transferOwnership(address)": {
        "details": "Transfers ownership of the contract to a new account (`newOwner`). Can only be called by the current owner."
      }
    },
    "version": 1
  },
  "userdoc": {
    "kind": "user",
    "methods": {},
    "version": 1
  }
}