{
  "contractName": "Token",
  "abi": [
    {
      "inputs": [
        {
          "internalType": "string",
          "name": "name",
          "type": "string"
        },
        {
          "internalType": "string",
          "name": "symbol",
          "type": "string"
        },
        {
          "internalType": "uint256",
          "name": "supply",
          "type": "uint256"
        },
        {
          "internalType": "address",
          "name": "_whitelistAddress",
          "type": "address"
        },
        {
          "internalType": "address",
          "name": "_blacklistAddress",
          "type": "address"
        }
      ],
      "stateMutability": "nonpayable",
      "type": "constructor"
    },
    {
      "anonymous": false,
      "inputs": [
        {
          "indexed": true,
          "internalType": "address",
          "name": "owner",
          "type": "address"
        },
        {
          "indexed": true,
          "internalType": "address",
          "name": "spender",
          "type": "address"
        },
        {
          "indexed": false,
          "internalType": "uint256",
          "name": "value",
          "type": "uint256"
        }
      ],
      "name": "Approval",
      "type": "event"
    },
    {
      "anonymous": false,
      "inputs": [
        {
          "indexed": true,
          "internalType": "address",
          "name": "previousOwner",
          "type": "address"
        },
        {
          "indexed": true,
          "internalType": "address",
          "name": "newOwner",
          "type": "address"
        }
      ],
      "name": "OwnershipTransferred",
      "type": "event"
    },
    {
      "anonymous": false,
      "inputs": [
        {
          "indexed": true,
          "internalType": "address",
          "name": "from",
          "type": "address"
        },
        {
          "indexed": true,
          "internalType": "address",
          "name": "to",
          "type": "address"
        },
        {
          "indexed": false,
          "internalType": "uint256",
          "name": "value",
          "type": "uint256"
        }
      ],
      "name": "Transfer",
      "type": "event"
    },
    {
      "inputs": [
        {
          "internalType": "address",
          "name": "owner",
          "type": "address"
        },
        {
          "internalType": "address",
          "name": "spender",
          "type": "address"
        }
      ],
      "name": "allowance",
      "outputs": [
        {
          "internalType": "uint256",
          "name": "",
          "type": "uint256"
        }
      ],
      "stateMutability": "view",
      "type": "function",
      "constant": true
    },
    {
      "inputs": [
        {
          "internalType": "address",
          "name": "spender",
          "type": "address"
        },
        {
          "internalType": "uint256",
          "name": "amount",
          "type": "uint256"
        }
      ],
      "name": "approve",
      "outputs": [
        {
          "internalType": "bool",
          "name": "",
          "type": "bool"
        }
      ],
      "stateMutability": "nonpayable",
      "type": "function"
    },
    {
      "inputs": [
        {
          "internalType": "address",
          "name": "account",
          "type": "address"
        }
      ],
      "name": "balanceOf",
      "outputs": [
        {
          "internalType": "uint256",
          "name": "",
          "type": "uint256"
        }
      ],
      "stateMutability": "view",
      "type": "function",
      "constant": true
    },
    {
      "inputs": [],
      "name": "decimals",
      "outputs": [
        {
          "internalType": "uint8",
          "name": "",
          "type": "uint8"
        }
      ],
      "stateMutability": "view",
      "type": "function",
      "constant": true
    },
    {
      "inputs": [
        {
          "internalType": "address",
          "name": "spender",
          "type": "address"
        },
        {
          "internalType": "uint256",
          "name": "subtractedValue",
          "type": "uint256"
        }
      ],
      "name": "decreaseAllowance",
      "outputs": [
        {
          "internalType": "bool",
          "name": "",
          "type": "bool"
        }
      ],
      "stateMutability": "nonpayable",
      "type": "function"
    },
    {
      "inputs": [
        {
          "internalType": "address",
          "name": "spender",
          "type": "address"
        },
        {
          "internalType": "uint256",
          "name": "addedValue",
          "type": "uint256"
        }
      ],
      "name": "increaseAllowance",
      "outputs": [
        {
          "internalType": "bool",
          "name": "",
          "type": "bool"
        }
      ],
      "stateMutability": "nonpayable",
      "type": "function"
    },
    {
      "inputs": [],
      "name": "name",
      "outputs": [
        {
          "internalType": "string",
          "name": "",
          "type": "string"
        }
      ],
      "stateMutability": "view",
      "type": "function",
      "constant": true
    },
    {
      "inputs": [],
      "name": "owner",
      "outputs": [
        {
          "internalType": "address",
          "name": "",
          "type": "address"
        }
      ],
      "stateMutability": "view",
      "type": "function",
      "constant": true
    },
    {
      "inputs": [],
      "name": "renounceOwnership",
      "outputs": [],
      "stateMutability": "nonpayable",
      "type": "function"
    },
    {
      "inputs": [],
      "name": "symbol",
      "outputs": [
        {
          "internalType": "string",
          "name": "",
          "type": "string"
        }
      ],
      "stateMutability": "view",
      "type": "function",
      "constant": true
    },
    {
      "inputs": [],
      "name": "totalSupply",
      "outputs": [
        {
          "internalType": "uint256",
          "name": "",
          "type": "uint256"
        }
      ],
      "stateMutability": "view",
      "type": "function",
      "constant": true
    },
    {
      "inputs": [
        {
          "internalType": "address",
          "name": "to",
          "type": "address"
        },
        {
          "internalType": "uint256",
          "name": "amount",
          "type": "uint256"
        }
      ],
      "name": "transfer",
      "outputs": [
        {
          "internalType": "bool",
          "name": "",
          "type": "bool"
        }
      ],
      "stateMutability": "nonpayable",
      "type": "function"
    },
    {
      "inputs": [
        {
          "internalType": "address",
          "name": "from",
          "type": "address"
        },
        {
          "internalType": "address",
          "name": "to",
          "type": "address"
        },
        {
          "internalType": "uint256",
          "name": "amount",
          "type": "uint256"
        }
      ],
      "name": "transferFrom",
      "outputs": [
        {
          "internalType": "bool",
          "name": "",
          "type": "bool"
        }
      ],
      "stateMutability": "nonpayable",
      "type": "function"
    },
    {
      "inputs": [
        {
          "internalType": "address",
          "name": "newOwner",
          "type": "address"
        }
      ],
      "name": "transferOwnership",
      "outputs": [],
      "stateMutability": "nonpayable",
      "type": "function"
    },
    {
      "inputs": [
        {
          "internalType": "address",
          "name": "contractAddress",
          "type": "address"
        }
      ],
      "name": "setWhitelistContract",
      "outputs": [],
      "stateMutability": "nonpayable",
      "type": "function"
    },
    {
      "inputs": [
        {
          "internalType": "address",
          "name": "contractAddress",
          "type": "address"
        }
      ],
      "name": "setBlacklistContract",
      "outputs": [],
      "stateMutability": "nonpayable",
      "type": "function"
    }
  ],
  "bytecode": "0x60806040523480156200001157600080fd5b5060405162002ec838038062002ec8833981810160405281019062000037919062000910565b848481600390816200004a919062000c17565b5080600490816200005c919062000c17565b5050506200007f620000736200022c60201b60201c565b6200023460201b60201c565b600073ffffffffffffffffffffffffffffffffffffffff168273ffffffffffffffffffffffffffffffffffffffff1603620000f1576040517f08c379a0000000000000000000000000000000000000000000000000000000008152600401620000e89062000d5f565b60405180910390fd5b81600660006101000a81548173ffffffffffffffffffffffffffffffffffffffff021916908373ffffffffffffffffffffffffffffffffffffffff160217905550600073ffffffffffffffffffffffffffffffffffffffff168173ffffffffffffffffffffffffffffffffffffffff1603620001a4576040517f08c379a00000000000000000000000000000000000000000000000000000000081526004016200019b9062000d5f565b60405180910390fd5b80600760006101000a81548173ffffffffffffffffffffffffffffffffffffffff021916908373ffffffffffffffffffffffffffffffffffffffff1602179055506200022133620001fa620002fa60201b60201c565b600a62000208919062000f11565b8562000215919062000f62565b6200030360201b60201c565b5050505050620012a1565b600033905090565b6000600560009054906101000a900473ffffffffffffffffffffffffffffffffffffffff16905081600560006101000a81548173ffffffffffffffffffffffffffffffffffffffff021916908373ffffffffffffffffffffffffffffffffffffffff1602179055508173ffffffffffffffffffffffffffffffffffffffff168173ffffffffffffffffffffffffffffffffffffffff167f8be0079c531659141344cd1fd0a4f28419497f9722a3daafe3b4186f6b6457e060405160405180910390a35050565b60006012905090565b600073ffffffffffffffffffffffffffffffffffffffff168273ffffffffffffffffffffffffffffffffffffffff160362000375576040517f08c379a00000000000000000000000000000000000000000000000000000000081526004016200036c9062000ffd565b60405180910390fd5b62000389600083836200047060201b60201c565b80600260008282546200039d91906200101f565b92505081905550806000808473ffffffffffffffffffffffffffffffffffffffff1673ffffffffffffffffffffffffffffffffffffffff168152602001908152602001600020600082825401925050819055508173ffffffffffffffffffffffffffffffffffffffff16600073ffffffffffffffffffffffffffffffffffffffff167fddf252ad1be2c89b69c2b068fc378daa952ba7f163c4a11628f55a4df523b3ef836040516200045091906200106b565b60405180910390a36200046c60008383620006d360201b60201c565b5050565b600073ffffffffffffffffffffffffffffffffffffffff168273ffffffffffffffffffffffffffffffffffffffff1603620004e2576040517f08c379a0000000000000000000000000000000000000000000000000000000008152600401620004d990620010fe565b60405180910390fd5b60011515600660009054906101000a900473ffffffffffffffffffffffffffffffffffffffff1673ffffffffffffffffffffffffffffffffffffffff166321887c3d846040518263ffffffff1660e01b815260040162000543919062001131565b602060405180830381865afa15801562000561573d6000803e3d6000fd5b505050506040513d601f19601f820116820180604052508101906200058791906200118b565b151514620005cc576040517f08c379a0000000000000000000000000000000000000000000000000000000008152600401620005c3906200120d565b60405180910390fd5b60001515600760009054906101000a900473ffffffffffffffffffffffffffffffffffffffff1673ffffffffffffffffffffffffffffffffffffffff166321887c3d846040518263ffffffff1660e01b81526004016200062d919062001131565b602060405180830381865afa1580156200064b573d6000803e3d6000fd5b505050506040513d601f19601f820116820180604052508101906200067191906200118b565b151514620006b6576040517f08c379a0000000000000000000000000000000000000000000000000000000008152600401620006ad906200127f565b60405180910390fd5b620006ce838383620006d860201b620008a91760201c565b505050565b505050565b505050565b6000604051905090565b600080fd5b600080fd5b600080fd5b600080fd5b6000601f19601f8301169050919050565b7f4e487b7100000000000000000000000000000000000000000000000000000000600052604160045260246000fd5b6200074682620006fb565b810181811067ffffffffffffffff821117156200076857620007676200070c565b5b80604052505050565b60006200077d620006dd565b90506200078b82826200073b565b919050565b600067ffffffffffffffff821115620007ae57620007ad6200070c565b5b620007b982620006fb565b9050602081019050919050565b60005b83811015620007e6578082015181840152602081019050620007c9565b60008484015250505050565b600062000809620008038462000790565b62000771565b905082815260208101848484011115620008285762000827620006f6565b5b62000835848285620007c6565b509392505050565b600082601f830112620008555762000854620006f1565b5b815162000867848260208601620007f2565b91505092915050565b6000819050919050565b620008858162000870565b81146200089157600080fd5b50565b600081519050620008a5816200087a565b92915050565b600073ffffffffffffffffffffffffffffffffffffffff82169050919050565b6000620008d882620008ab565b9050919050565b620008ea81620008cb565b8114620008f657600080fd5b50565b6000815190506200090a81620008df565b92915050565b600080600080600060a086880312156200092f576200092e620006e7565b5b600086015167ffffffffffffffff81111562000950576200094f620006ec565b5b6200095e888289016200083d565b955050602086015167ffffffffffffffff811115620009825762000981620006ec565b5b62000990888289016200083d565b9450506040620009a38882890162000894565b9350506060620009b688828901620008f9565b9250506080620009c988828901620008f9565b9150509295509295909350565b600081519050919050565b7f4e487b7100000000000000000000000000000000000000000000000000000000600052602260045260246000fd5b6000600282049050600182168062000a2957607f821691505b60208210810362000a3f5762000a3e620009e1565b5b50919050565b60008190508160005260206000209050919050565b60006020601f8301049050919050565b600082821b905092915050565b60006008830262000aa97fffffffffffffffffffffffffffffffffffffffffffffffffffffffffffffffff8262000a6a565b62000ab5868362000a6a565b95508019841693508086168417925050509392505050565b6000819050919050565b600062000af862000af262000aec8462000870565b62000acd565b62000870565b9050919050565b6000819050919050565b62000b148362000ad7565b62000b2c62000b238262000aff565b84845462000a77565b825550505050565b600090565b62000b4362000b34565b62000b5081848462000b09565b505050565b5b8181101562000b785762000b6c60008262000b39565b60018101905062000b56565b5050565b601f82111562000bc75762000b918162000a45565b62000b9c8462000a5a565b8101602085101562000bac578190505b62000bc462000bbb8562000a5a565b83018262000b55565b50505b505050565b600082821c905092915050565b600062000bec6000198460080262000bcc565b1980831691505092915050565b600062000c07838362000bd9565b9150826002028217905092915050565b62000c2282620009d6565b67ffffffffffffffff81111562000c3e5762000c3d6200070c565b5b62000c4a825462000a10565b62000c5782828562000b7c565b600060209050601f83116001811462000c8f576000841562000c7a578287015190505b62000c86858262000bf9565b86555062000cf6565b601f19841662000c9f8662000a45565b60005b8281101562000cc95784890151825560018201915060208501945060208101905062000ca2565b8683101562000ce9578489015162000ce5601f89168262000bd9565b8355505b6001600288020188555050505b505050505050565b600082825260208201905092915050565b7f41646472657373206e6f7420616c6c6f77656400000000000000000000000000600082015250565b600062000d4760138362000cfe565b915062000d548262000d0f565b602082019050919050565b6000602082019050818103600083015262000d7a8162000d38565b9050919050565b7f4e487b7100000000000000000000000000000000000000000000000000000000600052601160045260246000fd5b60008160011c9050919050565b6000808291508390505b600185111562000e0f5780860481111562000de75762000de662000d81565b5b600185161562000df75780820291505b808102905062000e078562000db0565b945062000dc7565b94509492505050565b60008262000e2a576001905062000efd565b8162000e3a576000905062000efd565b816001811462000e53576002811462000e5e5762000e94565b600191505062000efd565b60ff84111562000e735762000e7262000d81565b5b8360020a91508482111562000e8d5762000e8c62000d81565b5b5062000efd565b5060208310610133831016604e8410600b841016171562000ece5782820a90508381111562000ec85762000ec762000d81565b5b62000efd565b62000edd848484600162000dbd565b9250905081840481111562000ef75762000ef662000d81565b5b81810290505b9392505050565b600060ff82169050919050565b600062000f1e8262000870565b915062000f2b8362000f04565b925062000f5a7fffffffffffffffffffffffffffffffffffffffffffffffffffffffffffffffff848462000e18565b905092915050565b600062000f6f8262000870565b915062000f7c8362000870565b925082820262000f8c8162000870565b9150828204841483151762000fa65762000fa562000d81565b5b5092915050565b7f45524332303a206d696e7420746f20746865207a65726f206164647265737300600082015250565b600062000fe5601f8362000cfe565b915062000ff28262000fad565b602082019050919050565b60006020820190508181036000830152620010188162000fd6565b9050919050565b60006200102c8262000870565b9150620010398362000870565b925082820190508082111562001054576200105362000d81565b5b92915050565b620010658162000870565b82525050565b60006020820190506200108260008301846200105a565b92915050565b7f546f6b656e732063616e6e6f742062652073656e64206174205a65726f20616460008201527f6472657373000000000000000000000000000000000000000000000000000000602082015250565b6000620010e660258362000cfe565b9150620010f38262001088565b604082019050919050565b600060208201905081810360008301526200111981620010d7565b9050919050565b6200112b81620008cb565b82525050565b600060208201905062001148600083018462001120565b92915050565b60008115159050919050565b62001165816200114e565b81146200117157600080fd5b50565b60008151905062001185816200115a565b92915050565b600060208284031215620011a457620011a3620006e7565b5b6000620011b48482850162001174565b91505092915050565b7f57686974656c6973743a205265636569766572206e6f7420616c6c6f77657200600082015250565b6000620011f5601f8362000cfe565b91506200120282620011bd565b602082019050919050565b600060208201905081810360008301526200122881620011e6565b9050919050565b7f426c61636b6c6973743a205265636569766572206e6f7420616c6c6f77657200600082015250565b600062001267601f8362000cfe565b915062001274826200122f565b602082019050919050565b600060208201905081810360008301526200129a8162001258565b9050919050565b611c1780620012b16000396000f3fe608060405234801561001057600080fd5b50600436106101005760003560e01c8063715018a611610097578063a457c2d711610066578063a457c2d71461029d578063a9059cbb146102cd578063dd62ed3e146102fd578063f2fde38b1461032d57610100565b8063715018a61461023b578063741af17e146102455780638da5cb5b1461026157806395d89b411461027f57610100565b806323b872dd116100d357806323b872dd1461018d578063313ce567146101bd57806339509351146101db57806370a082311461020b57610100565b806306fdde0314610105578063095ea7b31461012357806312f261401461015357806318160ddd1461016f575b600080fd5b61010d610349565b60405161011a919061119d565b60405180910390f35b61013d60048036038101906101389190611258565b6103db565b60405161014a91906112b3565b60405180910390f35b61016d600480360381019061016891906112ce565b6103fe565b005b6101776104b9565b604051610184919061130a565b60405180910390f35b6101a760048036038101906101a29190611325565b6104c3565b6040516101b491906112b3565b60405180910390f35b6101c56104f2565b6040516101d29190611394565b60405180910390f35b6101f560048036038101906101f09190611258565b6104fb565b60405161020291906112b3565b60405180910390f35b610225600480360381019061022091906112ce565b610532565b604051610232919061130a565b60405180910390f35b61024361057a565b005b61025f600480360381019061025a91906112ce565b61058e565b005b610269610649565b60405161027691906113be565b60405180910390f35b610287610673565b604051610294919061119d565b60405180910390f35b6102b760048036038101906102b29190611258565b610705565b6040516102c491906112b3565b60405180910390f35b6102e760048036038101906102e29190611258565b61077c565b6040516102f491906112b3565b60405180910390f35b610317600480360381019061031291906113d9565b61079f565b604051610324919061130a565b60405180910390f35b610347600480360381019061034291906112ce565b610826565b005b60606003805461035890611448565b80601f016020809104026020016040519081016040528092919081815260200182805461038490611448565b80156103d15780601f106103a6576101008083540402835291602001916103d1565b820191906000526020600020905b8154815290600101906020018083116103b457829003601f168201915b5050505050905090565b6000806103e66108ae565b90506103f38185856108b6565b600191505092915050565b610406610a7f565b600073ffffffffffffffffffffffffffffffffffffffff168173ffffffffffffffffffffffffffffffffffffffff1603610475576040517f08c379a000000000000000000000000000000000000000000000000000000000815260040161046c906114c5565b60405180910390fd5b80600660006101000a81548173ffffffffffffffffffffffffffffffffffffffff021916908373ffffffffffffffffffffffffffffffffffffffff16021790555050565b6000600254905090565b6000806104ce6108ae565b90506104db858285610afd565b6104e6858585610b89565b60019150509392505050565b60006012905090565b6000806105066108ae565b9050610527818585610518858961079f565b6105229190611514565b6108b6565b600191505092915050565b60008060008373ffffffffffffffffffffffffffffffffffffffff1673ffffffffffffffffffffffffffffffffffffffff168152602001908152602001600020549050919050565b610582610a7f565b61058c6000610dff565b565b610596610a7f565b600073ffffffffffffffffffffffffffffffffffffffff168173ffffffffffffffffffffffffffffffffffffffff1603610605576040517f08c379a00000000000000000000000000000000000000000000000000000000081526004016105fc906114c5565b60405180910390fd5b80600760006101000a81548173ffffffffffffffffffffffffffffffffffffffff021916908373ffffffffffffffffffffffffffffffffffffffff16021790555050565b6000600560009054906101000a900473ffffffffffffffffffffffffffffffffffffffff16905090565b60606004805461068290611448565b80601f01602080910402602001604051908101604052809291908181526020018280546106ae90611448565b80156106fb5780601f106106d0576101008083540402835291602001916106fb565b820191906000526020600020905b8154815290600101906020018083116106de57829003601f168201915b5050505050905090565b6000806107106108ae565b9050600061071e828661079f565b905083811015610763576040517f08c379a000000000000000000000000000000000000000000000000000000000815260040161075a906115ba565b60405180910390fd5b61077082868684036108b6565b60019250505092915050565b6000806107876108ae565b9050610794818585610b89565b600191505092915050565b6000600160008473ffffffffffffffffffffffffffffffffffffffff1673ffffffffffffffffffffffffffffffffffffffff16815260200190815260200160002060008373ffffffffffffffffffffffffffffffffffffffff1673ffffffffffffffffffffffffffffffffffffffff16815260200190815260200160002054905092915050565b61082e610a7f565b600073ffffffffffffffffffffffffffffffffffffffff168173ffffffffffffffffffffffffffffffffffffffff160361089d576040517f08c379a00000000000000000000000000000000000000000000000000000000081526004016108949061164c565b60405180910390fd5b6108a681610dff565b50565b505050565b600033905090565b600073ffffffffffffffffffffffffffffffffffffffff168373ffffffffffffffffffffffffffffffffffffffff1603610925576040517f08c379a000000000000000000000000000000000000000000000000000000000815260040161091c906116de565b60405180910390fd5b600073ffffffffffffffffffffffffffffffffffffffff168273ffffffffffffffffffffffffffffffffffffffff1603610994576040517f08c379a000000000000000000000000000000000000000000000000000000000815260040161098b90611770565b60405180910390fd5b80600160008573ffffffffffffffffffffffffffffffffffffffff1673ffffffffffffffffffffffffffffffffffffffff16815260200190815260200160002060008473ffffffffffffffffffffffffffffffffffffffff1673ffffffffffffffffffffffffffffffffffffffff168152602001908152602001600020819055508173ffffffffffffffffffffffffffffffffffffffff168373ffffffffffffffffffffffffffffffffffffffff167f8c5be1e5ebec7d5bd14f71427d1e84f3dd0314c0f7b2291e5b200ac8c7c3b92583604051610a72919061130a565b60405180910390a3505050565b610a876108ae565b73ffffffffffffffffffffffffffffffffffffffff16610aa5610649565b73ffffffffffffffffffffffffffffffffffffffff1614610afb576040517f08c379a0000000000000000000000000000000000000000000000000000000008152600401610af2906117dc565b60405180910390fd5b565b6000610b09848461079f565b90507fffffffffffffffffffffffffffffffffffffffffffffffffffffffffffffffff8114610b835781811015610b75576040517f08c379a0000000000000000000000000000000000000000000000000000000008152600401610b6c90611848565b60405180910390fd5b610b8284848484036108b6565b5b50505050565b600073ffffffffffffffffffffffffffffffffffffffff168373ffffffffffffffffffffffffffffffffffffffff1603610bf8576040517f08c379a0000000000000000000000000000000000000000000000000000000008152600401610bef906118da565b60405180910390fd5b600073ffffffffffffffffffffffffffffffffffffffff168273ffffffffffffffffffffffffffffffffffffffff1603610c67576040517f08c379a0000000000000000000000000000000000000000000000000000000008152600401610c5e9061196c565b60405180910390fd5b610c72838383610ec5565b60008060008573ffffffffffffffffffffffffffffffffffffffff1673ffffffffffffffffffffffffffffffffffffffff16815260200190815260200160002054905081811015610cf8576040517f08c379a0000000000000000000000000000000000000000000000000000000008152600401610cef906119fe565b60405180910390fd5b8181036000808673ffffffffffffffffffffffffffffffffffffffff1673ffffffffffffffffffffffffffffffffffffffff16815260200190815260200160002081905550816000808573ffffffffffffffffffffffffffffffffffffffff1673ffffffffffffffffffffffffffffffffffffffff168152602001908152602001600020600082825401925050819055508273ffffffffffffffffffffffffffffffffffffffff168473ffffffffffffffffffffffffffffffffffffffff167fddf252ad1be2c89b69c2b068fc378daa952ba7f163c4a11628f55a4df523b3ef84604051610de6919061130a565b60405180910390a3610df9848484611108565b50505050565b6000600560009054906101000a900473ffffffffffffffffffffffffffffffffffffffff16905081600560006101000a81548173ffffffffffffffffffffffffffffffffffffffff021916908373ffffffffffffffffffffffffffffffffffffffff1602179055508173ffffffffffffffffffffffffffffffffffffffff168173ffffffffffffffffffffffffffffffffffffffff167f8be0079c531659141344cd1fd0a4f28419497f9722a3daafe3b4186f6b6457e060405160405180910390a35050565b600073ffffffffffffffffffffffffffffffffffffffff168273ffffffffffffffffffffffffffffffffffffffff1603610f34576040517f08c379a0000000000000000000000000000000000000000000000000000000008152600401610f2b90611a90565b60405180910390fd5b60011515600660009054906101000a900473ffffffffffffffffffffffffffffffffffffffff1673ffffffffffffffffffffffffffffffffffffffff166321887c3d846040518263ffffffff1660e01b8152600401610f9391906113be565b602060405180830381865afa158015610fb0573d6000803e3d6000fd5b505050506040513d601f19601f82011682018060405250810190610fd49190611adc565b151514611016576040517f08c379a000000000000000000000000000000000000000000000000000000000815260040161100d90611b55565b60405180910390fd5b60001515600760009054906101000a900473ffffffffffffffffffffffffffffffffffffffff1673ffffffffffffffffffffffffffffffffffffffff166321887c3d846040518263ffffffff1660e01b815260040161107591906113be565b602060405180830381865afa158015611092573d6000803e3d6000fd5b505050506040513d601f19601f820116820180604052508101906110b69190611adc565b1515146110f8576040517f08c379a00000000000000000000000000000000000000000000000000000000081526004016110ef90611bc1565b60405180910390fd5b6111038383836108a9565b505050565b505050565b600081519050919050565b600082825260208201905092915050565b60005b8381101561114757808201518184015260208101905061112c565b60008484015250505050565b6000601f19601f8301169050919050565b600061116f8261110d565b6111798185611118565b9350611189818560208601611129565b61119281611153565b840191505092915050565b600060208201905081810360008301526111b78184611164565b905092915050565b600080fd5b600073ffffffffffffffffffffffffffffffffffffffff82169050919050565b60006111ef826111c4565b9050919050565b6111ff816111e4565b811461120a57600080fd5b50565b60008135905061121c816111f6565b92915050565b6000819050919050565b61123581611222565b811461124057600080fd5b50565b6000813590506112528161122c565b92915050565b6000806040838503121561126f5761126e6111bf565b5b600061127d8582860161120d565b925050602061128e85828601611243565b9150509250929050565b60008115159050919050565b6112ad81611298565b82525050565b60006020820190506112c860008301846112a4565b92915050565b6000602082840312156112e4576112e36111bf565b5b60006112f28482850161120d565b91505092915050565b61130481611222565b82525050565b600060208201905061131f60008301846112fb565b92915050565b60008060006060848603121561133e5761133d6111bf565b5b600061134c8682870161120d565b935050602061135d8682870161120d565b925050604061136e86828701611243565b9150509250925092565b600060ff82169050919050565b61138e81611378565b82525050565b60006020820190506113a96000830184611385565b92915050565b6113b8816111e4565b82525050565b60006020820190506113d360008301846113af565b92915050565b600080604083850312156113f0576113ef6111bf565b5b60006113fe8582860161120d565b925050602061140f8582860161120d565b9150509250929050565b7f4e487b7100000000000000000000000000000000000000000000000000000000600052602260045260246000fd5b6000600282049050600182168061146057607f821691505b60208210810361147357611472611419565b5b50919050565b7f41646472657373206e6f7420616c6c6f77656400000000000000000000000000600082015250565b60006114af601383611118565b91506114ba82611479565b602082019050919050565b600060208201905081810360008301526114de816114a2565b9050919050565b7f4e487b7100000000000000000000000000000000000000000000000000000000600052601160045260246000fd5b600061151f82611222565b915061152a83611222565b9250828201905080821115611542576115416114e5565b5b92915050565b7f45524332303a2064656372656173656420616c6c6f77616e63652062656c6f7760008201527f207a65726f000000000000000000000000000000000000000000000000000000602082015250565b60006115a4602583611118565b91506115af82611548565b604082019050919050565b600060208201905081810360008301526115d381611597565b9050919050565b7f4f776e61626c653a206e6577206f776e657220697320746865207a65726f206160008201527f6464726573730000000000000000000000000000000000000000000000000000602082015250565b6000611636602683611118565b9150611641826115da565b604082019050919050565b6000602082019050818103600083015261166581611629565b9050919050565b7f45524332303a20617070726f76652066726f6d20746865207a65726f2061646460008201527f7265737300000000000000000000000000000000000000000000000000000000602082015250565b60006116c8602483611118565b91506116d38261166c565b604082019050919050565b600060208201905081810360008301526116f7816116bb565b9050919050565b7f45524332303a20617070726f766520746f20746865207a65726f20616464726560008201527f7373000000000000000000000000000000000000000000000000000000000000602082015250565b600061175a602283611118565b9150611765826116fe565b604082019050919050565b600060208201905081810360008301526117898161174d565b9050919050565b7f4f776e61626c653a2063616c6c6572206973206e6f7420746865206f776e6572600082015250565b60006117c6602083611118565b91506117d182611790565b602082019050919050565b600060208201905081810360008301526117f5816117b9565b9050919050565b7f45524332303a20696e73756666696369656e7420616c6c6f77616e6365000000600082015250565b6000611832601d83611118565b915061183d826117fc565b602082019050919050565b6000602082019050818103600083015261186181611825565b9050919050565b7f45524332303a207472616e736665722066726f6d20746865207a65726f20616460008201527f6472657373000000000000000000000000000000000000000000000000000000602082015250565b60006118c4602583611118565b91506118cf82611868565b604082019050919050565b600060208201905081810360008301526118f3816118b7565b9050919050565b7f45524332303a207472616e7366657220746f20746865207a65726f206164647260008201527f6573730000000000000000000000000000000000000000000000000000000000602082015250565b6000611956602383611118565b9150611961826118fa565b604082019050919050565b6000602082019050818103600083015261198581611949565b9050919050565b7f45524332303a207472616e7366657220616d6f756e742065786365656473206260008201527f616c616e63650000000000000000000000000000000000000000000000000000602082015250565b60006119e8602683611118565b91506119f38261198c565b604082019050919050565b60006020820190508181036000830152611a17816119db565b9050919050565b7f546f6b656e732063616e6e6f742062652073656e64206174205a65726f20616460008201527f6472657373000000000000000000000000000000000000000000000000000000602082015250565b6000611a7a602583611118565b9150611a8582611a1e565b604082019050919050565b60006020820190508181036000830152611aa981611a6d565b9050919050565b611ab981611298565b8114611ac457600080fd5b50565b600081519050611ad681611ab0565b92915050565b600060208284031215611af257611af16111bf565b5b6000611b0084828501611ac7565b91505092915050565b7f57686974656c6973743a205265636569766572206e6f7420616c6c6f77657200600082015250565b6000611b3f601f83611118565b9150611b4a82611b09565b602082019050919050565b60006020820190508181036000830152611b6e81611b32565b9050919050565b7f426c61636b6c6973743a205265636569766572206e6f7420616c6c6f77657200600082015250565b6000611bab601f83611118565b9150611bb682611b75565b602082019050919050565b60006020820190508181036000830152611bda81611b9e565b905091905056fea26469706673582212201b0cf18ee35fa70ac6273f5135c44a23673de5e1e9cbbe2de24d1d4a2d29e09e64736f6c63430008110033",
  "immutableReferences": {},
  "source": "// SPDX-License-Identifier: MIT\npragma solidity >=0.4.22 <0.9.0;\n\nimport \"../node_modules/@openzeppelin/contracts/token/ERC20/ERC20.sol\";\nimport \"../node_modules/@openzeppelin/contracts/access/Ownable.sol\";\n\nimport \"./interfaces/IWhitelist.sol\";\nimport \"./interfaces/IBlacklist.sol\";\n\n\ncontract Token is ERC20, Ownable {\n    \n  address private whitelistAddress;\n  address private blacklistAddress;\n\n  constructor(\n    string memory name,\n    string memory symbol,\n    uint256 supply,\n    address _whitelistAddress,\n    address _blacklistAddress\n  ) ERC20(name, symbol) {\n    require(_whitelistAddress != address(0), \"Address not allowed\");\n    whitelistAddress = _whitelistAddress;\n\n    require(_blacklistAddress != address(0), \"Address not allowed\");\n    blacklistAddress = _blacklistAddress;\n\n    _mint(msg.sender, supply * (10 ** decimals()));\n  }\n\n  function _beforeTokenTransfer(address from, address to, uint256 amount) internal override {\n    require(to != address(0), \"Tokens cannot be send at Zero address\");\n    require(IWhitelist(whitelistAddress).has(to) == true, \"Whitelist: Receiver not allower\");\n    require(IBlacklist(blacklistAddress).has(to) == false, \"Blacklist: Receiver not allower\");\n\n    super._beforeTokenTransfer(from, to, amount);\n  }\n\n  function setWhitelistContract(address contractAddress) public onlyOwner {\n    require(contractAddress != address(0), \"Address not allowed\");\n    whitelistAddress = contractAddress;\n  }\n\n  function setBlacklistContract(address contractAddress) public onlyOwner {\n    require(contractAddress != address(0), \"Address not allowed\");\n    blacklistAddress = contractAddress;\n  }\n}\n",
  "sourcePath": "/Users/antonioalfonso/work/masterzdev/homework1/contracts/Token.sol",
  "compiler": {
    "name": "solc",
    "version": "0.8.17+commit.8df45f5f.Emscripten.clang"
  },
  "schemaVersion": "3.4.11",
  "updatedAt": "2023-03-27T11:17:38.918Z",
  "networkType": "ethereum",
  "devdoc": {
    "kind": "dev",
    "methods": {
      "allowance(address,address)": {
        "details": "See {IERC20-allowance}."
      },
      "approve(address,uint256)": {
        "details": "See {IERC20-approve}. NOTE: If `amount` is the maximum `uint256`, the allowance is not updated on `transferFrom`. This is semantically equivalent to an infinite approval. Requirements: - `spender` cannot be the zero address."
      },
      "balanceOf(address)": {
        "details": "See {IERC20-balanceOf}."
      },
      "decimals()": {
        "details": "Returns the number of decimals used to get its user representation. For example, if `decimals` equals `2`, a balance of `505` tokens should be displayed to a user as `5.05` (`505 / 10 ** 2`). Tokens usually opt for a value of 18, imitating the relationship between Ether and Wei. This is the value {ERC20} uses, unless this function is overridden; NOTE: This information is only used for _display_ purposes: it in no way affects any of the arithmetic of the contract, including {IERC20-balanceOf} and {IERC20-transfer}."
      },
      "decreaseAllowance(address,uint256)": {
        "details": "Atomically decreases the allowance granted to `spender` by the caller. This is an alternative to {approve} that can be used as a mitigation for problems described in {IERC20-approve}. Emits an {Approval} event indicating the updated allowance. Requirements: - `spender` cannot be the zero address. - `spender` must have allowance for the caller of at least `subtractedValue`."
      },
      "increaseAllowance(address,uint256)": {
        "details": "Atomically increases the allowance granted to `spender` by the caller. This is an alternative to {approve} that can be used as a mitigation for problems described in {IERC20-approve}. Emits an {Approval} event indicating the updated allowance. Requirements: - `spender` cannot be the zero address."
      },
      "name()": {
        "details": "Returns the name of the token."
      },
      "owner()": {
        "details": "Returns the address of the current owner."
      },
      "renounceOwnership()": {
        "details": "Leaves the contract without owner. It will not be possible to call `onlyOwner` functions anymore. Can only be called by the current owner. NOTE: Renouncing ownership will leave the contract without an owner, thereby removing any functionality that is only available to the owner."
      },
      "symbol()": {
        "details": "Returns the symbol of the token, usually a shorter version of the name."
      },
      "totalSupply()": {
        "details": "See {IERC20-totalSupply}."
      },
      "transfer(address,uint256)": {
        "details": "See {IERC20-transfer}. Requirements: - `to` cannot be the zero address. - the caller must have a balance of at least `amount`."
      },
      "transferFrom(address,address,uint256)": {
        "details": "See {IERC20-transferFrom}. Emits an {Approval} event indicating the updated allowance. This is not required by the EIP. See the note at the beginning of {ERC20}. NOTE: Does not update the allowance if the current allowance is the maximum `uint256`. Requirements: - `from` and `to` cannot be the zero address. - `from` must have a balance of at least `amount`. - the caller must have allowance for ``from``'s tokens of at least `amount`."
      },
      "transferOwnership(address)": {
        "details": "Transfers ownership of the contract to a new account (`newOwner`). Can only be called by the current owner."
      }
    },
    "version": 1
  },
  "userdoc": {
    "kind": "user",
    "methods": {},
    "version": 1
  }
}