{
  "contractName": "Whitelist",
  "abi": [
    {
      "inputs": [],
      "stateMutability": "nonpayable",
      "type": "constructor"
    },
    {
      "anonymous": false,
      "inputs": [
        {
          "indexed": true,
          "internalType": "address",
          "name": "previousOwner",
          "type": "address"
        },
        {
          "indexed": true,
          "internalType": "address",
          "name": "newOwner",
          "type": "address"
        }
      ],
      "name": "OwnershipTransferred",
      "type": "event"
    },
    {
      "inputs": [
        {
          "internalType": "address",
          "name": "",
          "type": "address"
        }
      ],
      "name": "members",
      "outputs": [
        {
          "internalType": "bool",
          "name": "",
          "type": "bool"
        }
      ],
      "stateMutability": "view",
      "type": "function",
      "constant": true
    },
    {
      "inputs": [],
      "name": "membersLenght",
      "outputs": [
        {
          "internalType": "uint256",
          "name": "",
          "type": "uint256"
        }
      ],
      "stateMutability": "view",
      "type": "function",
      "constant": true
    },
    {
      "inputs": [],
      "name": "owner",
      "outputs": [
        {
          "internalType": "address",
          "name": "",
          "type": "address"
        }
      ],
      "stateMutability": "view",
      "type": "function",
      "constant": true
    },
    {
      "inputs": [],
      "name": "renounceOwnership",
      "outputs": [],
      "stateMutability": "nonpayable",
      "type": "function"
    },
    {
      "inputs": [
        {
          "internalType": "address",
          "name": "newOwner",
          "type": "address"
        }
      ],
      "name": "transferOwnership",
      "outputs": [],
      "stateMutability": "nonpayable",
      "type": "function"
    },
    {
      "inputs": [
        {
          "internalType": "address",
          "name": "member",
          "type": "address"
        }
      ],
      "name": "has",
      "outputs": [
        {
          "internalType": "bool",
          "name": "",
          "type": "bool"
        }
      ],
      "stateMutability": "view",
      "type": "function",
      "constant": true
    },
    {
      "inputs": [
        {
          "internalType": "address",
          "name": "member",
          "type": "address"
        }
      ],
      "name": "add",
      "outputs": [],
      "stateMutability": "nonpayable",
      "type": "function"
    },
    {
      "inputs": [
        {
          "internalType": "address",
          "name": "member",
          "type": "address"
        }
      ],
      "name": "remove",
      "outputs": [],
      "stateMutability": "nonpayable",
      "type": "function"
    },
    {
      "inputs": [],
      "name": "lenght",
      "outputs": [
        {
          "internalType": "uint256",
          "name": "",
          "type": "uint256"
        }
      ],
      "stateMutability": "view",
      "type": "function",
      "constant": true
    }
  ],
  "bytecode": "0x608060405260006002553480156200001657600080fd5b50620000376200002b6200004e60201b60201c565b6200005660201b60201c565b62000048336200011a60201b60201c565b62000435565b600033905090565b60008060009054906101000a900473ffffffffffffffffffffffffffffffffffffffff169050816000806101000a81548173ffffffffffffffffffffffffffffffffffffffff021916908373ffffffffffffffffffffffffffffffffffffffff1602179055508173ffffffffffffffffffffffffffffffffffffffff168173ffffffffffffffffffffffffffffffffffffffff167f8be0079c531659141344cd1fd0a4f28419497f9722a3daafe3b4186f6b6457e060405160405180910390a35050565b6200012a6200021260201b60201c565b600073ffffffffffffffffffffffffffffffffffffffff168173ffffffffffffffffffffffffffffffffffffffff16036200019c576040517f08c379a000000000000000000000000000000000000000000000000000000000815260040162000193906200032d565b60405180910390fd5b60018060008373ffffffffffffffffffffffffffffffffffffffff1673ffffffffffffffffffffffffffffffffffffffff16815260200190815260200160002060006101000a81548160ff02191690831515021790555060016002600082825462000208919062000388565b9250508190555050565b620002226200004e60201b60201c565b73ffffffffffffffffffffffffffffffffffffffff1662000248620002a360201b60201c565b73ffffffffffffffffffffffffffffffffffffffff1614620002a1576040517f08c379a0000000000000000000000000000000000000000000000000000000008152600401620002989062000413565b60405180910390fd5b565b60008060009054906101000a900473ffffffffffffffffffffffffffffffffffffffff16905090565b600082825260208201905092915050565b7f41646472657373206e6f7420616c6c6f77656400000000000000000000000000600082015250565b600062000315601383620002cc565b91506200032282620002dd565b602082019050919050565b60006020820190508181036000830152620003488162000306565b9050919050565b6000819050919050565b7f4e487b7100000000000000000000000000000000000000000000000000000000600052601160045260246000fd5b600062000395826200034f565b9150620003a2836200034f565b9250828201905080821115620003bd57620003bc62000359565b5b92915050565b7f4f776e61626c653a2063616c6c6572206973206e6f7420746865206f776e6572600082015250565b6000620003fb602083620002cc565b91506200040882620003c3565b602082019050919050565b600060208201905081810360008301526200042e81620003ec565b9050919050565b6109c880620004456000396000f3fe608060405234801561001057600080fd5b50600436106100935760003560e01c806345cb5ce61161006657806345cb5ce614610130578063715018a61461014e5780638da5cb5b14610158578063ad0262d014610176578063f2fde38b1461019457610093565b806308ae4b0c146100985780630a3b0a4f146100c857806321887c3d146100e457806329092d0e14610114575b600080fd5b6100b260048036038101906100ad9190610653565b6101b0565b6040516100bf919061069b565b60405180910390f35b6100e260048036038101906100dd9190610653565b6101d0565b005b6100fe60048036038101906100f99190610653565b6102bb565b60405161010b919061069b565b60405180910390f35b61012e60048036038101906101299190610653565b610311565b005b6101386103d6565b60405161014591906106cf565b60405180910390f35b6101566103e0565b005b6101606103f4565b60405161016d91906106f9565b60405180910390f35b61017e61041d565b60405161018b91906106cf565b60405180910390f35b6101ae60048036038101906101a99190610653565b610423565b005b60016020528060005260406000206000915054906101000a900460ff1681565b6101d86104a6565b600073ffffffffffffffffffffffffffffffffffffffff168173ffffffffffffffffffffffffffffffffffffffff1603610247576040517f08c379a000000000000000000000000000000000000000000000000000000000815260040161023e90610771565b60405180910390fd5b60018060008373ffffffffffffffffffffffffffffffffffffffff1673ffffffffffffffffffffffffffffffffffffffff16815260200190815260200160002060006101000a81548160ff0219169083151502179055506001600260008282546102b191906107c0565b9250508190555050565b6000600160008373ffffffffffffffffffffffffffffffffffffffff1673ffffffffffffffffffffffffffffffffffffffff16815260200190815260200160002060009054906101000a900460ff169050919050565b6103196104a6565b610322816102bb565b610361576040517f08c379a000000000000000000000000000000000000000000000000000000000815260040161035890610840565b60405180910390fd5b6000600160008373ffffffffffffffffffffffffffffffffffffffff1673ffffffffffffffffffffffffffffffffffffffff16815260200190815260200160002060006101000a81548160ff0219169083151502179055506001600260008282546103cc9190610860565b9250508190555050565b6000600254905090565b6103e86104a6565b6103f26000610524565b565b60008060009054906101000a900473ffffffffffffffffffffffffffffffffffffffff16905090565b60025481565b61042b6104a6565b600073ffffffffffffffffffffffffffffffffffffffff168173ffffffffffffffffffffffffffffffffffffffff160361049a576040517f08c379a000000000000000000000000000000000000000000000000000000000815260040161049190610906565b60405180910390fd5b6104a381610524565b50565b6104ae6105e8565b73ffffffffffffffffffffffffffffffffffffffff166104cc6103f4565b73ffffffffffffffffffffffffffffffffffffffff1614610522576040517f08c379a000000000000000000000000000000000000000000000000000000000815260040161051990610972565b60405180910390fd5b565b60008060009054906101000a900473ffffffffffffffffffffffffffffffffffffffff169050816000806101000a81548173ffffffffffffffffffffffffffffffffffffffff021916908373ffffffffffffffffffffffffffffffffffffffff1602179055508173ffffffffffffffffffffffffffffffffffffffff168173ffffffffffffffffffffffffffffffffffffffff167f8be0079c531659141344cd1fd0a4f28419497f9722a3daafe3b4186f6b6457e060405160405180910390a35050565b600033905090565b600080fd5b600073ffffffffffffffffffffffffffffffffffffffff82169050919050565b6000610620826105f5565b9050919050565b61063081610615565b811461063b57600080fd5b50565b60008135905061064d81610627565b92915050565b600060208284031215610669576106686105f0565b5b60006106778482850161063e565b91505092915050565b60008115159050919050565b61069581610680565b82525050565b60006020820190506106b0600083018461068c565b92915050565b6000819050919050565b6106c9816106b6565b82525050565b60006020820190506106e460008301846106c0565b92915050565b6106f381610615565b82525050565b600060208201905061070e60008301846106ea565b92915050565b600082825260208201905092915050565b7f41646472657373206e6f7420616c6c6f77656400000000000000000000000000600082015250565b600061075b601383610714565b915061076682610725565b602082019050919050565b6000602082019050818103600083015261078a8161074e565b9050919050565b7f4e487b7100000000000000000000000000000000000000000000000000000000600052601160045260246000fd5b60006107cb826106b6565b91506107d6836106b6565b92508282019050808211156107ee576107ed610791565b5b92915050565b7f41646472657373206e6f74206578697374656400000000000000000000000000600082015250565b600061082a601383610714565b9150610835826107f4565b602082019050919050565b600060208201905081810360008301526108598161081d565b9050919050565b600061086b826106b6565b9150610876836106b6565b925082820390508181111561088e5761088d610791565b5b92915050565b7f4f776e61626c653a206e6577206f776e657220697320746865207a65726f206160008201527f6464726573730000000000000000000000000000000000000000000000000000602082015250565b60006108f0602683610714565b91506108fb82610894565b604082019050919050565b6000602082019050818103600083015261091f816108e3565b9050919050565b7f4f776e61626c653a2063616c6c6572206973206e6f7420746865206f776e6572600082015250565b600061095c602083610714565b915061096782610926565b602082019050919050565b6000602082019050818103600083015261098b8161094f565b905091905056fea26469706673582212205ce3ccaf095bfbe86d37c11d1c094030576a3767751a1b39f457f017a83fc19a64736f6c63430008110033",
  "immutableReferences": {},
  "source": "// SPDX-License-Identifier: MIT\npragma solidity >=0.4.22 <0.9.0;\n\nimport \"../node_modules/@openzeppelin/contracts/access/Ownable.sol\";\n\nimport \"./interfaces/IWhitelist.sol\";\n\ncontract Whitelist is Ownable, IWhitelist {\n\n  mapping (address=>bool) public members;\n  uint256 public membersLenght = 0;\n\n  constructor() { \n    add(msg.sender);\n  }\n\n  function has(address member) public view override returns (bool) {\n    return members[member];\n  }\n\n  function add(address member) public onlyOwner {\n    require(member != address(0), \"Address not allowed\");\n    members[member] = true;\n    membersLenght += 1;\n  }\n\n  function remove(address member) public onlyOwner {\n    require(has(member), \"Address not existed\");\n    members[member] = false;\n    membersLenght -= 1;\n  }\n\n  function lenght() public view returns (uint256) {\n    return membersLenght;\n  }\n}\n",
  "sourcePath": "/Users/antonioalfonso/work/masterzdev/homework1/contracts/Whitelist.sol",
  "compiler": {
    "name": "solc",
    "version": "0.8.17+commit.8df45f5f.Emscripten.clang"
  },
  "schemaVersion": "3.4.11",
  "updatedAt": "2023-03-27T11:17:38.927Z",
  "networkType": "ethereum",
  "devdoc": {
    "kind": "dev",
    "methods": {
      "owner()": {
        "details": "Returns the address of the current owner."
      },
      "renounceOwnership()": {
        "details": "Leaves the contract without owner. It will not be possible to call `onlyOwner` functions anymore. Can only be called by the current owner. NOTE: Renouncing ownership will leave the contract without an owner, thereby removing any functionality that is only available to the owner."
      },
      "transferOwnership(address)": {
        "details": "Transfers ownership of the contract to a new account (`newOwner`). Can only be called by the current owner."
      }
    },
    "version": 1
  },
  "userdoc": {
    "kind": "user",
    "methods": {},
    "version": 1
  }
}